:100000000C9434000C9451000C9451000C94510049
:100010000C9451000C9451000C9451000C9451001C
:100020000C9451000C9451000C9451000C9451000C
:100030000C9451000C9463000C9451000C945100EA
:100040000C9453000C9451000C9451000C945100EA
:100050000C9451000C9451000C9451000C945100DC
:100060000C9451000C94510011241FBECFEFD8E026
:10007000DEBFCDBF11E0A0E0B1E0EAEDF2E002C0EA
:1000800005900D92A833B107D9F721E0A8E3B1E0BC
:1000900001C01D92A234B207E1F70E9478000C94CF
:1000A0006B010C9400001F920F920FB60F92112457
:1000B0008F9315BC5F9880EB86BD8F910F900FBE1C
:1000C0000F901F9018951F920F920FB60F92112448
:1000D0008F931092810081E0809338011092850007
:1000E000109284008F910F900FBE0F901F90189563
:1000F000579A5F983D983B98459A439A80916E0035
:10010000816080936E0080EB86BD80916F0081607E
:1001100080936F001092850010928400789484E0A0
:10012000F82EEE24E39498E2D92E22E0C22EC6E9FE
:10013000D0E033E0B32E80913901823009F465C0FC
:1001400038F5882361F18130C1F710923801F091C0
:100150003B010091400110E040913A01242F30E032
:10016000CE018F1B9109B801621B730B0E944301E2
:10017000762F60934101D901A050BF4FFF5FFC93E0
:10018000C9010196FD012C5F3F4F4B5F460F37C001
:10019000833009F43FC0843009F472C0CECF40915F
:1001A0003601409340013091370130934101109264
:1001B0003A0110923B01D0920001E0E0F1E081E0D1
:1001C00090E050E065E0630F8417950764F42081A8
:1001D000853091051CF4260F281B01C0230F2183B5
:1001E00001963196F1CFC0923901A5CF50812817E1
:1001F00039074CF0540F581B5183019631968017E4
:100200009107A4F304C0570FF7CF339B94CFB0925C
:10021000390191CF80913801882319F0E09239019A
:100220008ACF359B27C0809181008E7F809381008B
:1002300080913B018F5F80933B01E0913A01F0E0B8
:10024000E050FF4F9081891309C05F9A85B58160A6
:1002500085BD80913A018F5F80933A019091400172
:1002600080913A01891718F4F092390164CF109205
:10027000390161CF809181008460809381005BCFE0
:10028000359BC5CF58CF97FB072E16F4009407D0A7
:1002900077FD09D00E94570107FC05D03EF49095E8
:1002A00081959F4F0895709561957F4F0895AA1B82
:1002B000BB1B51E107C0AA1FBB1FA617B70710F051
:1002C000A61BB70B881F991F5A95A9F78095909583
:0A02D000BC01CD010895F894FFCFA2
:1002DA0028000000000000000000000000000000EC
:1002EA000000000000000000000000000000000004
:1002FA0000000000000000000000000000000000F4
:08030A000000CDCC4C4025039E
:00000001FF
