S00E0000534D6F746F722E73726563B2
S11300000C94B5000C94D2000C94D2000C94D20041
S11300100C94D2000C94D2000C94D2000C94D20014
S11300200C94D2000C94D2000C94D2000C94D20004
S11300300C94D2000C94E4000C94D2000C94D200E2
S11300400C94D4000C94D2000C94D2000C94D200E2
S11300500C94D2000C94D2000C94D2000C94D200D4
S11300600C94D2000C94D2006E616E00696E66002E
S113007000407A10F35A00A0724E18090010A5D45B
S1130080E80000E87648170000E40B54020000CAB8
S11300909A3B000000E1F5050000809698000000FE
S11300A040420F000000A08601000000102700005D
S11300B00000E803000000006400000000000A00E3
S11300C0000000000100000000002C76D888DC67E6
S11300D04F0823DFC1DFAE59E1B1B796E5E3E4533E
S11300E0C63AE651997696E8E6C28426EB898C9B5B
S11300F062ED407C6FFCEFBC9C9F40F2BAA56FA5FB
S1130100F490055A2AF75C936B6CF9676DC11BFC7C
S1130110E0E40D47FEF520E6B500D0ED902E030097
S1130120943577050080841E080000204E0A0000E4
S113013000C80C333333330F986E12831141EF8DA3
S11301402114893BE65516CFFEE6DB18D1844B38E3
S11301501BF77C1D901DA4BBE424203284725E2214
S11301608100C9F124ECA1E53D2711241FBECFEF86
S1130170D8E0DEBFCDBF11E0A0E0B1E0E0E3F6E1FE
S113018002C005900D92AC33B107D9F721E0ACE37E
S1130190B1E001C01D92A938B207E1F70E94340111
S11301A00C94160B0C9400001F920F920FB60F9232
S11301B011248F9315BC5F9880EB86BD8F910F90AF
S11301C00FBE0F901F9018951F920F920FB60F92AB
S11301D011248F939F931092810087EF92EC909358
S11301E085008093840081E0809340019F918F91EA
S11301F00F900FBE0F901F901895ECE7F0E08081F0
S11302008064808380818E7F8083EAE7F0E0808150
S113021080688083808187608083089580917A00DC
S1130220806480937A0080917A0086FDFCCF80916F
S113023078002091790090E0922B08950E940E019D
S11302409C01220F331F820F931F6AEA72E00E94FF
S1130250F60880E090E00E947E0420E030E040E078
S11302605FE30E947103089580E090E00E94DD0A3C
S11302708F3FB9F460E080E090E00E94EB0A4DEC1F
S11302805CEC6CE470E481E090E00E94F90A65E2C1
S113029086E090E00E94EB0A63E08AE090E00E942E
S11302A0EB0A81E090E00E94E50A60938301709379
S11302B08401809385019093860186E090E00E94FA
S11302C0DD0AC82F809387018AE090E00E94DD0A4E
S11302D08093880198E2909300016C2F70E0AB0149
S11302E0415051092EE6849F2019112420933F0187
S11302F0E0E0F1E041E050E030E02D5F3F4FA1E06D
S1130300A80FB5E0B80F4617570794F4908145300D
S113031051051CF49B0F941B06C02417350714F0D9
S11303209A0F01C0980F91834F5F5F4F3196EBCFC7
S113033080E091E09093800180937F01579A5F98C9
S11303403A983D983B98459A439A0E94FD008091C3
S11303506E00816080936E0080EB86BD80916F009B
S1130360816080936F0087EF92EC90938500809377
S11303708400789486E9882E912C00EA93E4A92ECF
S113038091E0B92E20E0222E21E0322EC1E037EF99
S1130390432E32EC532ED2E013E08091420182309E
S11303A009F48BC028F4882351F0813069F1F7CF28
S11303B0833009F4B8C0843009F41DC1F0CF329BF6
S11303C00BC080913E018F5F80933E01833330F0F8
S11303D054E0509342011AC110923E01339B11C064
S11303E080913D018F5F80933D018B30B0F210927C
S11303F08101109282013092800120927F01C0938A
S1130400420110923D01C9CF329B08C080913E0148
S11304108F5F80933E018333D8F602C010923E0171
S113042080914001882329F010928100C0934101FA
S11304305BC0359B38C080913C018F5F80933C0149
S1130440853008F4AACF1092810050928500409222
S1130450840080918101882329F080918100836048
S113046080938100809182018F5F809382019091BB
S11304708101E0917F01F0918001E90FF11D9081EC
S1130480891309C05F9A85B5816085BD809181011A
S11304908F5F8093810190918701809181018917F9
S11304A028F4D093420110923C0177CF109242017C
S11304B01092810010924001F6CF329B09C08091C6
S11304C03E018F5F80933E01833308F081CF02C0E9
S11304D010923E0180914001882349F010928100DE
S11304E010924001D09341011093420156CF3599A7
S11304F0DACF80913C018F5F80933C01853008F412
S11305004CCF1092810050928500409284008091DB
S11305108101882329F08091810083608093810088
S1130520C09342013ACF329B09C080913E018F5F54
S113053080933E01833308F04BCF02C010923E01FA
S11305401092400140918201E0908701F12CD090FB
S113055081012D2D30E0C401841B9109B701621B78
S1130560730B0E940A09762F60938801F901ED5BF1
S1130570FE4F4F5F4083A9014F5F5F4FC90104964F
S113058065E06D0DD62ED70E4E155F056CF46081B7
S1130590841795071CF06D0D641B01C0670F618300
S11305A04F5F5F4F3196F0CFF701E150FF4F40812D
S11305B0502F541B50933F01F901E050FF4F9C0111
S11305C0250F311D51E0570F8E159F055CF44381B3
S11305D08217930714F4450F01C0470F4483019613
S11305E03196F2CFB0928001A0927F0180914101B7
S11305F080934201D2CE32990CC080913E018F5F2C
S113060080933E01833338F01092420110923E01F0
S1130610C4CE10923E010E941E016B017C016093C6
S1130620830170938401809385019093860120E077
S113063030E04AE755E40E940C0520E030E84BEA3C
S113064053E40E94DD030E944F0460938701662EE9
S1130650712C9301215031098EE690E0B9010E947A
S11306600A09562F6093880188E2809300018EE680
S1130670629F80191124282F80933F01E0E0F1E06C
S113068081E090E030E02D5F3F4F61E0650F75E061
S1130690750F861597058CF44081853091051CF4FF
S11306A0470F481B06C02817390714F0460F01C02E
S11306B0450F418301963196ECCFB701A60181E045
S11306C090E00E94F90A6091870186E090E00E9420
S11306D0EB0A609188018AE090E00E94EB0A5DCE0B
S11306E05058BB27AA270E9488030C94D2040E9466
S11306F0C40438F00E94CB0420F039F49F3F19F46D
S113070026F40C94C1040EF4E095E7FB0C94BB04AE
S1130710E92F0E94E30458F3BA17620773078407AA
S1130720950720F079F4A6F50C9405050EF4E095F0
S11307300B2EBA2FA02D0B01B90190010C01CA0197
S1130740A0011124FF27591B99F0593F50F4503E42
S113075068F11A16F040A22F232F342F4427585F34
S1130760F3CF469537952795A795F0405395C9F74C
S11307707EF41F16BA0B620B730B840BBAF0915004
S1130780A1F0FF0FBB1F661F771F881FC2F70EC0A3
S1130790BA0F621F731F841F48F487957795679576
S11307A0B795F7959E3F08F0B0CF9395880F08F062
S11307B09927EE0F9795879508950E94F1030C945D
S11307C0D2040E94CB0458F00E94C40440F029F4DF
S11307D05F3F29F00C94BB0451110C9406050C9452
S11307E0C1040E94E30468F39923B1F3552391F300
S11307F0951B550BBB27AA2762177307840738F08C
S11308009F5F5F4F220F331F441FAA1FA9F335D0E8
S11308100E2E3AF0E0E832D091505040E695001C9C
S1130820CAF72BD0FE2F29D0660F771F881FBB1F56
S1130830261737074807AB07B0E809F0BB0B802D34
S1130840BF01FF2793585F4F3AF09E3F510578F060
S11308500C94BB040C9406055F3FE4F3983ED4F378
S1130860869577956795B795F7959F5FC9F7880F34
S1130870911D9695879597F90895E1E0660F771F86
S1130880881FBB1F621773078407BA0720F0621B17
S1130890730B840BBA0BEE1F88F7E09508950E9442
S11308A0EB0488F09F5798F0B92F9927B751B0F00F
S11308B0E1F0660F771F881F991F1AF0BA95C9F7E0
S11308C014C0B13091F00E940505B1E008950C9474
S11308D00505672F782F8827B85F39F0B93FCCF327
S11308E0869577956795B395D9F73EF4909580955D
S11308F0709561957F4F8F4F9F4F0895E89409C07D
S113090097FB3EF490958095709561957F4F8F4F3E
S11309109F4F9923A9F0F92F96E9BB279395F69554
S1130920879577956795B795F111F8CFFAF4BB0FD2
S113093011F460FF1BC06F5F7F4F8F4F9F4F16C036
S1130940882311F096E911C0772321F09EE8872FC0
S1130950762F05C0662371F096E8862F70E060E07C
S11309602AF09A95660F771F881FDAF7880F9695F5
S1130970879597F9089597F99F6780E870E060E09C
S113098008959FEF80EC089500240A941616170624
S113099018060906089500240A941216130614066C
S11309A005060895092E0394000C11F4882352F0CF
S11309B0BB0F40F4BF2B11F460FF04C06F5F7F4F87
S11309C08F4F9F4F089557FD9058440F551F59F06E
S11309D05F3F71F04795880F97FB991F61F09F3F28
S11309E079F087950895121613061406551FF2CF51
S11309F04695F1DF08C0161617061806991FF1CFA1
S1130A0086957105610508940895E894BB276627C7
S1130A107727CB0197F908950E941F050C94D204FF
S1130A200E94C40438F00E94CB0420F0952311F0F6
S1130A300C94BB040C94C10411240C9406050E946C
S1130A40E30470F3959FC1F3950F50E0551F629F27
S1130A50F001729FBB27F00DB11D639FAA27F00D13
S1130A60B11DAA1F649F6627B00DA11D661F829F3A
S1130A702227B00DA11D621F739FB00DA11D621F1F
S1130A80839FA00D611D221F749F3327A00D611D3C
S1130A90231F849F600D211D822F762F6A2F11241E
S1130AA09F5750409AF0F1F088234AF0EE0FFF1F51
S1130AB0BB1F661F771F881F91505040A9F79E3FA8
S1130AC0510580F00C94BB040C9406055F3FE4F3DD
S1130AD0983ED4F3869577956795B795F795E795FE
S1130AE09F5FC1F7FE2B880F911D9695879597F907
S1130AF00895A0E1B0E0EFE7F5E00C941E097C0155
S1130B001B016A01FC0117821682838181FF44C3A1
S1130B109E012F5F3F4F3901F7019381F10193FD4E
S1130B20859193FF81911F01882309F431C3853294
S1130B3039F493FD859193FF81911F01853239F436
S1130B40B70190E00E94430A56016501E5CF10E029
S1130B50512C912CFFE1F915D8F08B3279F038F44F
S1130B60803279F08332A1F4F92DF0612EC08D32F8
S1130B7061F0803369F4292D21602DC0392D326054
S1130B80932E892D8460982E2AC0E92DE86015C023
S1130B9097FC2DC020ED280F2A3088F496FE06C05D
S1130BA03AE0139F200D1124122F19C08AE0589E99
S1130BB0200D1124522EE92DE0629E2E10C08E329B
S1130BC031F496FCE5C2F92DF0649F2E08C08C36F2
S1130BD021F4292D2068922E02C0883641F4F101B7
S1130BE093FD859193FF81911F018111B3CF9BEBFD
S1130BF0980F933020F4992D9061805E07C09BE993
S1130C00980F933008F066C1992D9F7E96FF16E0E9
S1130C109F73992E853619F49064992E08C08636F0
S1130C2021F4392F3068932E02C01111115097FE10
S1130C3007C01C3350F444244394410E27E00BC0F6
S1130C40183038F027E017E005C027E09CE3492E70
S1130C5002C0212F412C560184E0A80EB11CF601DC
S1130C606081718182819381042DA3010E945509C1
S1130C706C01F981FC87F0FF02C0F3FF06C091FC10
S1130C8006C092FE06C000E205C00DE203C00BE2FE
S1130C9001C000E08C858C7019F001115AC29BC20E
S1130CA097FE10C04C0CFC85F4FF04C08A8181338C
S1130CB009F44A94141474F528E0241578F588E0AE
S1130CC0482E2CC096FC2AC0812F90E08C159D05DF
S1130CD09CF03CEFC3163FEFD30674F0892D806877
S1130CE0982E0AC0E2E0F0E0EC0FFD1FE10FF11DC9
S1130CF08081803319F411501111F4CF97FE0EC086
S1130D0044244394410E812F90E0C816D9062CF454
S1130D101C1904C04424439401C010E097FE06C08B
S1130D201C141D0434F4C601019605C085E090E04E
S1130D3002C081E090E001110196112331F0212FCE
S1130D4030E02F5F3F4F820F931F252D30E0821735
S1130D50930714F4581A01C0512C892D897049F451
S1130D60552039F0B70180E290E00E94430A5A947A
S1130D70F7CF002329F0B701802F90E00E94430AA7
S1130D8093FC09C0552039F0B70180E390E00E943C
S1130D90430A5A94F7CF97FE4CC04601D7FE02C0CF
S1130DA0812C912CC60188199909F301E80FF91FC8
S1130DB0FE87ED87960124193109388B2F87012F7F
S1130DC010E01195019511093FEF8316930629F45C
S1130DD0B7018EE290E00E94430AC814D9044CF093
S1130DE08F8598898815990524F4ED85FE85818180
S1130DF001C080E3F1E08F1A91082D853E852F5FB5
S1130E003F4F3E872D87801691062CF0B70190E066
S1130E100E94430AD9CFC814D90441F49A81963365
S1130E2020F4953319F43C8534FF81E3B70190E055
S1130E304EC08A81813319F09C859F7E9C87B701BF
S1130E4090E00E94430A111105C094FC18C085E685
S1130E5090E017C0B7018EE290E00E94430A1E5F43
S1130E6082E001E0080FF301E80FF11D8081B70172
S1130E7090E00E94430A802F0113F3CFE6CF85E46C
S1130E8090E0B7010E94430AD7FC06C0C114D10404
S1130E9041F4EC85E4FF05C0D194C194D1088DE2FE
S1130EA001C08BE2B70190E00E94430A80E32AE08C
S1130EB0C216D1042CF08F5FFAE0CF1AD108F7CF15
S1130EC0B70190E00E94430AB701C601C0960E9490
S1130ED0430A54C1833631F0833779F0833509F0FE
S1130EE056C020C0560132E0A30EB11CF601808129
S1130EF0898301E010E0630112C05601F2E0AF0EF5
S1130F00B11CF601C080D18096FE03C0612F70E051
S1130F1002C06FEF7FEFC6010E94380A8C01F92DE1
S1130F20FF7714C0560122E0A20EB11CF601C08066
S1130F30D18096FE03C0612F70E002C06FEF7FEF97
S1130F40C6010E942D0A8C01F92DF0689F2EF3FD35
S1130F501AC0852D90E008171907A8F4B70180E29C
S1130F6090E00E94430A5A94F4CFF60197FC8591CD
S1130F7097FE81916F01B70190E00E94430A5110DE
S1130F805A94015011090115110579F7F7C08436F7
S1130F9011F0893661F5560197FE09C024E0A20ECE
S1130FA0B11CF60160817181828193810AC0F2E0F3
S1130FB0AF0EB11CF60160817181072E000C880B05
S1130FC0990BF92DFF769F2E97FF09C09095809578
S1130FD0709561957F4F8F4F9F4FF0689F2E2AE049
S1130FE030E0A3010E947F0AC82EC6183FC0092D15
S1130FF0853721F40F7E2AE030E01DC0097F8F364B
S113100091F018F4883559F0C3C0803719F0883747
S113101011F0BEC0006104FF09C0046007C094FE63
S113102008C0066006C028E030E005C020E130E0DA
S113103002C020E132E0560107FF09C084E0A80E97
S1131040B11CF601608171818281938108C0F2E054
S1131050AF0EB11CF6016081718180E090E0A301C4
S11310600E947F0AC82EC6180F77902E96FE0BC0DA
S1131070092D0E7FC11650F494FE0AC092FC08C0DC
S1131080092D0E7E05C0DC2C092D03C0DC2C01C00B
S1131090D12E04FF0DC0FE01EC0DF11D80818033C3
S11310A011F4097E09C002FF06C0D394D39404C08E
S11310B0802F867809F0D39403FD11C000FF06C089
S11310C01C2DD51480F4150D1D190DC0D51458F41C
S11310D0B70180E290E00E94430AD394F7CFD5147D
S11310E010F45D1801C0512C04FF10C0B70180E357
S11310F090E00E94430A02FF17C001FD03C088E785
S113110090E002C088E590E0B7010CC0802F86789B
S113111059F001FF02C08BE201C080E207FD8DE2BD
S1131120B70190E00E94430AC11638F4B70180E386
S113113090E00E94430A1150F7CFCA94F301EC0DDA
S1131140F11D8081B70190E00E94430AC110F5CFE0
S113115015C0F4E0F51560F584E0581A93FE1FC03D
S1131160011127C02C8523FF2AC008E610E0392D81
S11311703071932EF8018491811124C0552009F413
S1131180E4CCB70180E290E00E94430A5A94F6CF7F
S1131190F7018681978126C08FEF9FEF23C0B701A7
S11311A080E290E00E94430A5A945110F8CFD8CFBD
S11311B0512CB701802F90E00E94430AD3CF0CE654
S11311C010E0D5CF91108052B70190E00E94430AFD
S11311D00F5F1F4FCFCF23E0251510F483E0BDCF61
S11311E0512CC0CF6096E2E10C943A09AA1BBB1BB8
S11311F051E107C0AA1FBB1FA617B70710F0A61B13
S1131200B70B881F991F5A95A9F780959095BC0133
S1131210CD01089597FB072E16F4009407D077FDAF
S113122009D00E94F60807FC05D03EF490958195FC
S11312309F4F0895709561957F4F08952F923F9227
S11312404F925F926F927F928F929F92AF92BF92D2
S1131250CF92DF92EF92FF920F931F93CF93DF937E
S1131260CDB7DEB7CA1BDB0B0FB6F894DEBF0FBEDB
S1131270CDBF09942A88398848885F846E847D8428
S11312808C849B84AA84B984C884DF80EE80FD802A
S11312900C811B81AA81B981CE0FD11D0FB6F894A0
S11312A0DEBF0FBECDBFED010895283008F027E062
S11312B03327DA01990F311D87FD9160009661058E
S11312C0710539F432602E5F3D9330E32A95E1F7DE
S11312D008959F3F30F080387105610509F03C5F47
S11312E03C5F3D93913008F08068911DDF93CF936C
S11312F01F930F93FF92EF92192F987F9695E92FE2
S113130096959695E90FFF27E653FF4F99273327C4
S1131310EE24FF24A701E70105900894079428F41C
S1131320360FE71EF81E491F511D660F771F881FD1
S1131330991F0694A1F70590079428F4E70EF81E68
S1131340491F561FC11D770F881F991F661F0694DA
S1131350A1F70590079428F4F80E491F561FC71FDC
S1131360D11D880F991F661F771F0694A1F705905A
S1131370079420F4490F561FC71FD81F990F661FE3
S1131380771F881F0694A9F784911095177041F070
S1131390D695C79557954795F794E7941A95C1F74D
S11313A0E0E7F0E068941590159135916591959179
S11313B005907FE27395E118F10A430B560BC90BB4
S11313C0D009C0F7E10CF11E431F561FC91FD01DE1
S11313D07EF4703311F48A95E6CFE894015030F02E
S11313E0080F0AF40027021708F4202F2395022F70
S11313F07A3328F079E37D932A95E9F710C07D9339
S11314002A9589F6069497956795379517951794B5
S1131410E118F10A430B560BC90BD00998F0239538
S11314207E9173957A3308F070E37C932013B8F7B8
S11314307E9170617D9330F0839571E37D9370E3C9
S11314402A95E1F71124EF90FF900F911F91CF910E
S1131450DF91992787FD90950895FC0105906150CF
S113146070400110D8F7809590958E0F9F1F0895B6
S1131470FC016150704001900110D8F7809590955F
S11314808E0F9F1F08950F931F93CF93DF93FB013C
S1131490238121FD03C08FEF9FEF2CC022FF16C0D4
S11314A046815781248135814217530744F4A08132
S11314B0B1819D012F5F3F4F318320838C9326811F
S11314C037812F5F3F4F3783268314C08B01EC0194
S11314D0FB010084F185E02D0995892BE1F6D80103
S11314E016968D919C911797019617969C938E93BF
S11314F01697CE01DF91CF911F910F910895FA01B4
S1131500AA27283051F1203181F1E8946F936E7F3E
S11315106E5F7F4F8F4F9F4FAF4FB1E03ED0B4E02F
S11315203CD0670F781F891F9A1FA11D680F791F70
S11315308A1F911DA11D6A0F711D811D911DA11D81
S113154020D009F468943F912AE0269F1124301991
S1131550305D3193DEF6CF010895462F4770405D2C
S11315604193B3E00FD0C9F7F6CF462F4F70405DDB
S11315704A3318F0495D31FD4052419302D0A9F736
S1131580EACFB4E0A6959795879577956795BA9530
S1131590C9F700976105710508959B01AC010A2EF6
S11315A006945795479537952795BA95C9F7620FCD
S11315B0731F841F951FA01D0895F999FECF92BD36
S11315C081BDF89A992780B50895A6E1B0E044E07A
S11315D050E00C94080B262FF999FECF1FBA92BD48
S11315E081BD20BD0FB6F894FA9AF99A0FBE019600
S11315F00895242F0E94EC0A252F0E94EC0A0C94D3
S1131600010B0E94EB0A272F0C94EC0ADC01CB019E
S1131610FC01F999FECF06C0F2BDE1BDF89A3196FE
S113162000B40D9241505040B8F70895F894FFCF9C
S1131630280000000000000000000000000000007E
S11316400000000000000000000000000000000096
S11316500000000000000000000000000000000086
S10F16600000000000000000000000007A
S9030000FC
