:100000000C9434000C9451000C9451000C94510049
:100010000C9451000C9451000C9451000C9451001C
:100020000C9451000C9451000C9451000C9451000C
:100030000C9451000C9463000C9451000C945100EA
:100040000C9453000C9451000C9451000C945100EA
:100050000C9451000C9451000C9451000C945100DC
:100060000C9451000C94510011241FBECFEFD8E026
:10007000DEBFCDBF11E0A0E0B1E0E2E7F8E002C0F2
:1000800005900D92A233B107D9F721E0A2E3B1E0C8
:1000900001C01D92A237B207E1F70E94B3000C9491
:1000A00037040C9400001F920F920FB60F92112488
:1000B0008F9315BC5F9880EB86BD8F910F900FBE1C
:1000C0000F901F9018951F920F920FB60F92112448
:1000D0008F939F931092810080EF98ED909385000D
:1000E0008093840081E0809334019F918F910F90E1
:1000F0000FBE0F901F901895ECE7F0E080818064B0
:10010000808380818E7F8083EAE7F0E08081806851
:100110008083808187608083089580917A008064E5
:1001200080937A0080917A0086FDFCCF80917800E0
:100130002091790090E0922B08950E948D009C01FF
:10014000220F331F820F931F6AEA72E00E940F048E
:1001500080E090E00E94140320E030E040E05FE3A4
:100160000E94070208958DEC9CECACE4B0E480930F
:100170006C0190936D01A0936E01B0936F0185E2C5
:100180008093700183E08093710188E28093000185
:10019000E0E0F1E081E090E02081853091051CF401
:1001A000281B285F01C02D5F21830196319685327F
:1001B000910591F780E091E0909369018093680147
:1001C000579A5F983A983D983B98459A439A0E946F
:1001D0007C0080916E00816080936E0080EB86BD14
:1001E00080916F00816080936F0080EF98ED909315
:1001F0008500809384007894C6E9D0E006E311E09E
:10020000772473948EE6E82EF12C98E2292E20E0D4
:10021000C22E21E0D22E34E0332E40EFA42E48ED42
:10022000B42E52E0452E63E0562E80913501823087
:1002300009F465C028F4882351F0813061F1F7CFCB
:10024000833009F45FC0843009F493C0F0CF329B4F
:100250000AC0809133018F5F80933301833328F08C
:100260003092350191C010923301339B11C08091BF
:1002700032018F5F809332018333B8F210926A01AA
:1002800010926B01D0926901C092680170923501A1
:1002900010923201CACF80913401882319F0509214
:1002A0003501C3CF359BC1CF10928100B09285003C
:1002B000A092840080916B018F5F80936B0190917D
:1002C0006A01E0916801F0916901E90FF11D9081E7
:1002D000891309C05F9A85B5816085BD80916A01E7
:1002E0008F5F80936A019091700180916A018917F4
:1002F00018F44092350199CF1092350196CF359977
:1003000094CF34C01092340160906B0180907001E2
:10031000912C40916A01242F30E0CE018619910979
:10032000B401621B730B0E942304562F609371016A
:10033000F901EA5CFE4F63946082C90101962C5F6B
:100340003F4F4B5F460F8815990564F4608128176D
:1003500039071CF0640F681B01C0650F61830196AB
:100360003196F1CF109369010093680170923501C5
:100370005CCF32990CC0809133018F5F8093330141
:10038000833338F010923501109233014ECF109222
:1003900033010E949D0060936C0170936D01809306
:1003A0006E0190936F0120E030E04AE755E40E942F
:1003B000A20320E030E84BEA53E40E9473020E945B
:1003C000E50260937001262F30E0B9016150710998
:1003D000C7010E942304562F6093710120920001EF
:1003E000E0E0F1E081E090E065E0650F82179307BF
:1003F0000CF01BCF4081853091051CF4460F481B43
:1004000001C0450F418301963196F0CF5058BB276C
:10041000AA270E941E020C9468030E945A0338F017
:100420000E94610320F039F49F3F19F426F40C94E4
:1004300057030EF4E095E7FB0C945103E92F0E945B
:10044000790358F3BA17620773078407950720F0FA
:1004500079F4A6F50C949B030EF4E0950B2EBA2FBD
:10046000A02D0B01B90190010C01CA01A0011124BA
:10047000FF27591B99F0593F50F4503E68F11A1666
:10048000F040A22F232F342F4427585FF3CF4695F7
:1004900037952795A795F0405395C9F77EF41F1619
:1004A000BA0B620B730B840BBAF09150A1F0FF0FE3
:1004B000BB1F661F771F881FC2F70EC0BA0F621FCF
:1004C000731F841F48F4879577956795B795F795BF
:1004D0009E3F08F0B0CF9395880F08F09927EE0F54
:1004E0009795879508950E9487020C9468030E944F
:1004F000610358F00E945A0340F029F45F3F29F04D
:100500000C94510351110C949C030C9457030E94BA
:10051000790368F39923B1F3552391F3951B550B98
:10052000BB27AA2762177307840738F09F5F5F4FC6
:10053000220F331F441FAA1FA9F335D00E2E3AF005
:10054000E0E832D091505040E695001CCAF72BD01D
:10055000FE2F29D0660F771F881FBB1F261737076E
:100560004807AB07B0E809F0BB0B802DBF01FF27A0
:1005700093585F4F3AF09E3F510578F00C94510329
:100580000C949C035F3FE4F3983ED4F386957795F3
:100590006795B795F7959F5FC9F7880F911D969559
:1005A000879597F90895E1E0660F771F881FBB1FB5
:1005B000621773078407BA0720F0621B730B840B62
:1005C000BA0BEE1F88F7E09508950E94810388F02A
:1005D0009F5798F0B92F9927B751B0F0E1F0660F07
:1005E000771F881F991F1AF0BA95C9F714C0B13048
:1005F00091F00E949B03B1E008950C949B03672F38
:10060000782F8827B85F39F0B93FCCF38695779576
:100610006795B395D9F73EF490958095709561955F
:100620007F4F8F4F9F4F0895E89409C097FB3EF48A
:1006300090958095709561957F4F8F4F9F4F99232F
:10064000A9F0F92F96E9BB279395F69587957795AD
:100650006795B795F111F8CFFAF4BB0F11F460FF6D
:100660001BC06F5F7F4F8F4F9F4F16C0882311F0C5
:1006700096E911C0772321F09EE8872F762F05C0D9
:10068000662371F096E8862F70E060E02AF09A9574
:10069000660F771F881FDAF7880F9695879597F969
:1006A000089597F99F6780E870E060E008959FEFF4
:1006B00080EC089500240A941616170618060906F9
:1006C000089500240A9412161306140605060895C8
:1006D000092E0394000C11F4882352F0BB0F40F450
:1006E000BF2B11F460FF04C06F5F7F4F8F4F9F4F90
:1006F000089557FD9058440F551F59F05F3F71F012
:100700004795880F97FB991F61F09F3F79F0879578
:100710000895121613061406551FF2CF4695F1DF01
:1007200008C0161617061806991FF1CF8695710591
:10073000610508940895E894BB2766277727CB01C5
:1007400097F908950E94B5030C9468030E945A0318
:1007500038F00E94610320F0952311F00C945103AE
:100760000C94570311240C949C030E94790370F39A
:10077000959FC1F3950F50E0551F629FF001729F46
:10078000BB27F00DB11D639FAA27F00DB11DAA1F55
:10079000649F6627B00DA11D661F829F2227B00DA2
:1007A000A11D621F739FB00DA11D621F839FA00D2D
:1007B000611D221F749F3327A00D611D231F849F7D
:1007C000600D211D822F762F6A2F11249F575040D4
:1007D0009AF0F1F088234AF0EE0FFF1FBB1F661F4F
:1007E000771F881F91505040A9F79E3F510580F018
:1007F0000C9451030C949C035F3FE4F3983ED4F3B4
:10080000869577956795B795F795E7959F5FC1F7BB
:10081000FE2B880F911D9695879597F90895AA1B31
:10082000BB1B51E107C0AA1FBB1FA617B70710F0DB
:10083000A61BB70B881F991F5A95A9F7809590950D
:10084000BC01CD01089597FB072E16F4009407D044
:1008500077FD09D00E940F0407FC05D03EF4909567
:1008600081959F4F0895709561957F4F0895F894F5
:02087000FFCFB8
:10087200280000000000000000000000000000004E
:100882000000000000000000000000000000000066
:100892000000000000000000000000000000000056
:0208A200000054
:00000001FF
