:100000000C9434000C943E000C943E000C943E0082
:100010000C943E000C943E000C943E000C943E0068
:100020000C943E000C943E000C943E000C943E0058
:100030000C943E000C943E000C943E000C943E0048
:100040000C943E000C943E000C943E000C943E0038
:100050000C943E000C943E000C943E000C943E0028
:100060000C943E000C943E0011241FBECFEFD8E04C
:10007000DEBFCDBF0E9440000C947C000C940000B9
:100080008AB180648AB98AB180688AB98BB1806488
:100090008BB985E88A95F1F700008BB18F7B8BB91E
:1000A00090E00FC08BB180688BB985E88A95F1F735
:1000B00000008BB18F778BB985E88A95F1F7000046
:1000C0009F5F943678F30FC08BB180688BB985E859
:1000D0008A95F1F700008BB18F778BB985E88A9507
:1000E000F1F700009F5F983C78F387EC90E0019770
:0C00F000F1F700C00000CACFF894FFCF69
:00000001FF
